{
  "contractName": "register",
  "abi": [
    {
      "inputs": [
        {
          "internalType": "address",
          "name": "username",
          "type": "address"
        },
        {
          "internalType": "uint256",
          "name": "password",
          "type": "uint256"
        }
      ],
      "name": "signup",
      "outputs": [],
      "stateMutability": "nonpayable",
      "type": "function"
    },
    {
      "inputs": [
        {
          "internalType": "address",
          "name": "username",
          "type": "address"
        },
        {
          "internalType": "uint256",
          "name": "password",
          "type": "uint256"
        }
      ],
      "name": "login",
      "outputs": [
        {
          "internalType": "bool",
          "name": "",
          "type": "bool"
        }
      ],
      "stateMutability": "view",
      "type": "function",
      "constant": true
    }
  ],
  "bytecode": "0x608060405234801561001057600080fd5b5061048a806100206000396000f3fe608060405234801561001057600080fd5b50600436106100365760003560e01c8063726238191461003b5780637f8cb4c11461006b575b600080fd5b61005560048036038101906100509190610338565b610087565b6040516100629190610393565b60405180910390f35b61008560048036038101906100809190610338565b610160565b005b600080600090505b600080549050811015610154578373ffffffffffffffffffffffffffffffffffffffff16600082815481106100c7576100c66103ae565b5b9060005260206000200160009054906101000a900473ffffffffffffffffffffffffffffffffffffffff1673ffffffffffffffffffffffffffffffffffffffff1614801561013257508260018281548110610125576101246103ae565b5b9060005260206000200154145b1561014157600191505061015a565b808061014c9061040c565b91505061008f565b60009150505b92915050565b600260003373ffffffffffffffffffffffffffffffffffffffff1673ffffffffffffffffffffffffffffffffffffffff16815260200190815260200160002060009054906101000a900460ff16156101b757600080fd5b6000829080600181540180825580915050600190039060005260206000200160009091909190916101000a81548173ffffffffffffffffffffffffffffffffffffffff021916908373ffffffffffffffffffffffffffffffffffffffff16021790555060018190806001815401808255809150506001900390600052602060002001600090919091909150556001600260003373ffffffffffffffffffffffffffffffffffffffff1673ffffffffffffffffffffffffffffffffffffffff16815260200190815260200160002060006101000a81548160ff0219169083151502179055505050565b600080fd5b600073ffffffffffffffffffffffffffffffffffffffff82169050919050565b60006102cf826102a4565b9050919050565b6102df816102c4565b81146102ea57600080fd5b50565b6000813590506102fc816102d6565b92915050565b6000819050919050565b61031581610302565b811461032057600080fd5b50565b6000813590506103328161030c565b92915050565b6000806040838503121561034f5761034e61029f565b5b600061035d858286016102ed565b925050602061036e85828601610323565b9150509250929050565b60008115159050919050565b61038d81610378565b82525050565b60006020820190506103a86000830184610384565b92915050565b7f4e487b7100000000000000000000000000000000000000000000000000000000600052603260045260246000fd5b7f4e487b7100000000000000000000000000000000000000000000000000000000600052601160045260246000fd5b600061041782610302565b91507fffffffffffffffffffffffffffffffffffffffffffffffffffffffffffffffff8203610449576104486103dd565b5b60018201905091905056fea2646970667358221220c167f75cd122b30fe2e3f01853f8b3967b2903a0dbc66721872ce426c7659c9464736f6c63430008120033",
  "immutableReferences": {},
  "source": "// SPDX-License-Identifier: MIT\npragma solidity >=0.4.22 <0.9.0;\n\ncontract register {\n    address[] _usernames;\n    uint[] _passwords;\n\n    mapping(address => bool) _users;\n\n    function signup(address username, uint password) public {\n        require(!_users[msg.sender]);\n\n        _usernames.push(username);\n        _passwords.push(password);\n        _users[msg.sender] = true;\n    }\n\n    function login(address username, uint password) public view returns (bool) {\n        uint i;\n\n        for (i = 0; i < _usernames.length; i++) {\n            if (_usernames[i] == username && _passwords[i] == password) {\n                return true;\n            }\n        }\n        return false;\n    }\n}\n",
  "sourcePath": "C:\\Users\\Anjali\\Desktop\\voting-dapp\\contracts\\register.sol",
  "compiler": {
    "name": "solc",
    "version": "0.8.18+commit.87f61d96.Emscripten.clang"
  },
  "schemaVersion": "3.4.14",
  "updatedAt": "2023-06-28T11:01:46.989Z",
  "networkType": "ethereum",
  "devdoc": {
    "kind": "dev",
    "methods": {},
    "version": 1
  },
  "userdoc": {
    "kind": "user",
    "methods": {},
    "version": 1
  }
}